{
  "_format": "hh-sol-artifact-1",
  "contractName": "Flow",
  "sourceName": "contracts/dataFlow/Flow.sol",
  "abi": [
    {
      "inputs": [
        {
          "internalType": "address",
          "name": "_token",
          "type": "address"
        }
      ],
      "stateMutability": "nonpayable",
      "type": "constructor"
    },
    {
      "inputs": [],
      "name": "InvalidSubmission",
      "type": "error"
    },
    {
      "anonymous": false,
      "inputs": [
        {
          "indexed": true,
          "internalType": "address",
          "name": "sender",
          "type": "address"
        },
        {
          "indexed": true,
          "internalType": "uint256",
          "name": "index",
          "type": "uint256"
        },
        {
          "indexed": false,
          "internalType": "bytes32",
          "name": "startMerkleRoot",
          "type": "bytes32"
        },
        {
          "indexed": false,
          "internalType": "uint256",
          "name": "submissionIndex",
          "type": "uint256"
        },
        {
          "indexed": false,
          "internalType": "uint256",
          "name": "flowLength",
          "type": "uint256"
        },
        {
          "indexed": false,
          "internalType": "bytes32",
          "name": "context",
          "type": "bytes32"
        }
      ],
      "name": "NewEpoch",
      "type": "event"
    },
    {
      "anonymous": false,
      "inputs": [
        {
          "indexed": false,
          "internalType": "address",
          "name": "account",
          "type": "address"
        }
      ],
      "name": "Paused",
      "type": "event"
    },
    {
      "anonymous": false,
      "inputs": [
        {
          "indexed": true,
          "internalType": "address",
          "name": "sender",
          "type": "address"
        },
        {
          "indexed": true,
          "internalType": "bytes32",
          "name": "identity",
          "type": "bytes32"
        },
        {
          "indexed": false,
          "internalType": "uint256",
          "name": "submissionIndex",
          "type": "uint256"
        },
        {
          "indexed": false,
          "internalType": "uint256",
          "name": "startPos",
          "type": "uint256"
        },
        {
          "indexed": false,
          "internalType": "uint256",
          "name": "length",
          "type": "uint256"
        },
        {
          "components": [
            {
              "internalType": "uint256",
              "name": "length",
              "type": "uint256"
            },
            {
              "components": [
                {
                  "internalType": "bytes32",
                  "name": "root",
                  "type": "bytes32"
                },
                {
                  "internalType": "uint256",
                  "name": "height",
                  "type": "uint256"
                }
              ],
              "internalType": "struct IonianSubmissionNode[]",
              "name": "nodes",
              "type": "tuple[]"
            }
          ],
          "indexed": false,
          "internalType": "struct IonianSubmission",
          "name": "submission",
          "type": "tuple"
        }
      ],
      "name": "Submission",
      "type": "event"
    },
    {
      "anonymous": false,
      "inputs": [
        {
          "indexed": false,
          "internalType": "address",
          "name": "account",
          "type": "address"
        }
      ],
      "name": "Unpaused",
      "type": "event"
    },
    {
      "inputs": [],
      "name": "commitRoot",
      "outputs": [],
      "stateMutability": "nonpayable",
      "type": "function"
    },
    {
      "inputs": [],
      "name": "currentLength",
      "outputs": [
        {
          "internalType": "uint256",
          "name": "",
          "type": "uint256"
        }
      ],
      "stateMutability": "view",
      "type": "function"
    },
    {
      "inputs": [],
      "name": "getContext",
      "outputs": [
        {
          "components": [
            {
              "internalType": "uint256",
              "name": "epoch",
              "type": "uint256"
            },
            {
              "internalType": "uint256",
              "name": "epochStart",
              "type": "uint256"
            },
            {
              "internalType": "bytes32",
              "name": "flowRoot",
              "type": "bytes32"
            },
            {
              "internalType": "uint256",
              "name": "flowLength",
              "type": "uint256"
            },
            {
              "internalType": "bytes32",
              "name": "digest",
              "type": "bytes32"
            }
          ],
          "internalType": "struct MineContext",
          "name": "",
          "type": "tuple"
        }
      ],
      "stateMutability": "view",
      "type": "function"
    },
    {
      "inputs": [
        {
          "internalType": "bytes32",
          "name": "digest",
          "type": "bytes32"
        }
      ],
      "name": "getEpochRange",
      "outputs": [
        {
          "components": [
            {
              "internalType": "uint128",
              "name": "start",
              "type": "uint128"
            },
            {
              "internalType": "uint128",
              "name": "end",
              "type": "uint128"
            }
          ],
          "internalType": "struct EpochRange",
          "name": "",
          "type": "tuple"
        }
      ],
      "stateMutability": "view",
      "type": "function"
    },
    {
      "inputs": [],
      "name": "makeContext",
      "outputs": [],
      "stateMutability": "nonpayable",
      "type": "function"
    },
    {
      "inputs": [],
      "name": "makeContextWithResult",
      "outputs": [
        {
          "components": [
            {
              "internalType": "uint256",
              "name": "epoch",
              "type": "uint256"
            },
            {
              "internalType": "uint256",
              "name": "epochStart",
              "type": "uint256"
            },
            {
              "internalType": "bytes32",
              "name": "flowRoot",
              "type": "bytes32"
            },
            {
              "internalType": "uint256",
              "name": "flowLength",
              "type": "uint256"
            },
            {
              "internalType": "bytes32",
              "name": "digest",
              "type": "bytes32"
            }
          ],
          "internalType": "struct MineContext",
          "name": "",
          "type": "tuple"
        }
      ],
      "stateMutability": "nonpayable",
      "type": "function"
    },
    {
      "inputs": [
        {
          "internalType": "uint256",
          "name": "_length",
          "type": "uint256"
        },
        {
          "internalType": "uint256",
          "name": "alignExp",
          "type": "uint256"
        }
      ],
      "name": "nextAlign",
      "outputs": [
        {
          "internalType": "uint256",
          "name": "",
          "type": "uint256"
        }
      ],
      "stateMutability": "pure",
      "type": "function"
    },
    {
      "inputs": [
        {
          "internalType": "uint256",
          "name": "_length",
          "type": "uint256"
        }
      ],
      "name": "nextPow2",
      "outputs": [
        {
          "internalType": "uint256",
          "name": "",
          "type": "uint256"
        }
      ],
      "stateMutability": "pure",
      "type": "function"
    },
    {
      "inputs": [],
      "name": "numSubmissions",
      "outputs": [
        {
          "internalType": "uint256",
          "name": "",
          "type": "uint256"
        }
      ],
      "stateMutability": "view",
      "type": "function"
    },
    {
      "inputs": [],
      "name": "paused",
      "outputs": [
        {
          "internalType": "bool",
          "name": "",
          "type": "bool"
        }
      ],
      "stateMutability": "view",
      "type": "function"
    },
    {
      "inputs": [],
      "name": "root",
      "outputs": [
        {
          "internalType": "bytes32",
          "name": "",
          "type": "bytes32"
        }
      ],
      "stateMutability": "view",
      "type": "function"
    },
    {
      "inputs": [
        {
          "components": [
            {
              "internalType": "uint256",
              "name": "length",
              "type": "uint256"
            },
            {
              "components": [
                {
                  "internalType": "bytes32",
                  "name": "root",
                  "type": "bytes32"
                },
                {
                  "internalType": "uint256",
                  "name": "height",
                  "type": "uint256"
                }
              ],
              "internalType": "struct IonianSubmissionNode[]",
              "name": "nodes",
              "type": "tuple[]"
            }
          ],
          "internalType": "struct IonianSubmission",
          "name": "submission",
          "type": "tuple"
        }
      ],
      "name": "submit",
      "outputs": [
        {
          "internalType": "uint256",
          "name": "",
          "type": "uint256"
        },
        {
          "internalType": "bytes32",
          "name": "",
          "type": "bytes32"
        },
        {
          "internalType": "uint256",
          "name": "",
          "type": "uint256"
        },
        {
          "internalType": "uint256",
          "name": "",
          "type": "uint256"
        }
      ],
      "stateMutability": "nonpayable",
      "type": "function"
    },
    {
      "inputs": [],
      "name": "unstagedHeight",
      "outputs": [
        {
          "internalType": "uint256",
          "name": "",
          "type": "uint256"
        }
      ],
      "stateMutability": "view",
      "type": "function"
    },
    {
      "inputs": [
        {
          "internalType": "uint256",
          "name": "height",
          "type": "uint256"
        }
      ],
      "name": "zeros",
      "outputs": [
        {
          "internalType": "bytes32",
          "name": "",
          "type": "bytes32"
        }
      ],
      "stateMutability": "pure",
      "type": "function"
    }
  ],
  "bytecode": "0x60803462000211576001600160401b0390601f6200251938819003918201601f191683019291848411838510176200021657808392604095865283396020928391810103126200021157516001600160a01b039182821691829003620002115760009160ff198354168355600193848055855183810181811089821117620001d55787528490526002805485825580620001e9575b5080549068010000000000000000821015620001d557868201808255821015620001c1578552838520018490556003859055600480546001600160a01b031990811690931790556008849055855161043c8082019089821183831017620001ad5785918391620020dd83396014815203019085f08015620001a357169060055416176005554360075583519060a0820195828710908711176200018f5784956080955282825243908201527fc5d2460186f7233c927e7db2dcc703c0e500b653ca82273b7bfad8045d85a47093818587819401528460608201520152600a5543600b5581600c55600d55600e5551611eb090816200022d8239f35b634e487b7160e01b83526041600452602483fd5b86513d86823e3d90fd5b634e487b7160e01b87526041600452602487fd5b634e487b7160e01b86526032600452602486fd5b634e487b7160e01b86526041600452602486fd5b81865286858720918201915b8281106200020557505062000094565b878155018790620001f5565b600080fd5b634e487b7160e01b600052604160045260246000fdfe6040608081526004908136101561001557600080fd5b600091823560e01c908163127f0f071461092c578163364800ec1461090d57816338d45e10146108e55781633d75d9c2146108c5578163555430a1146108a25781635c975abb1461088057816365cad29b1461024f57816377e19824146102305781637d590708146101c6578163a3d35f36146101a7578163b464b53e14610123578163d34353c914610106578163e8295588146100e3575063ebf0c717146100bd57600080fd5b346100df57816003193601126100df576020906100d8610f87565b9051908152f35b5080fd5b82843461010357602036600319011261010357506100d8602092356111ee565b80fd5b5050346100df57816003193601126100df5761012061100c565b51f35b5050346100df57816003193601126100df576101a390610141610e6d565b506101596007544310156101548161094a565b61094a565b610161610bf4565b610169610e98565b90519182918291909160808060a0830194805184526020810151602085015260408101516040850152606081015160608501520151910152565b0390f35b5050346100df57816003193601126100df576020906001549051908152f35b90503461022c57602036600319011261022c5791819281602084516101ea81610996565b8281520152358152600f6020522081519061020482610996565b546001600160801b0390602082821693848152019060801c8152835192835251166020820152f35b8280fd5b5050346100df57816003193601126100df576020906006549051908152f35b90503461022c576020926003199284843601126100df57823567ffffffffffffffff9586821161087c5781850194838336039788011261051d5760ff855416610848576007544310156102a18161094a565b6102b36102ae3689610a3e565b611dbd565b15610811576102c19061094a565b6102c9610bf4565b60018054602497858901939188919082855b610635575b508454908103908111610623577f028f5c28f5c28f5c28f5c28f5c28f5c28f5c28f5c28f5c28f5c28f5c28f5c28f81118516610623576103e89060640281018091116106235760018060a01b03845416895191888301906323b872dd60e01b82528d339085015230604485015260648401526064835261035f836109c8565b8a519261036b84610996565b8984527f5361666545524332303a206c6f772d6c6576656c2063616c6c206661696c65648a850152823b156105e0578f92869283809351925af13d156105d2573d9182116105c057906103dc92918b51916103cf8b601f19601f8401160184610a00565b82523d868b84013e610ed5565b86815180610548575b5050506103fa6103f53683610a3e565b611d77565b99866104063684610a3e565b015189518881818101938d8083019084875282518092528b85606086019401958b925b848410610521575050505050610448925003601f198101835282610a00565b519020976006549c8d9761045b89610b7b565b6006558b519889528c8a8a01528d8c8a0152608060608a015260c08901943560808a015235906022190181121561051d57019384013593019b83116100df578260061b36038c136100df5791809193928860a08701525260e084019a925b81811061050257505050506080977f82bc10d958d6e946c497bda90b6f9fa29e5b1f68fffee22fe0ad6ab3f0194ce982859333930390a382519586528501528301526060820152f35b83358c5285840135868d01529a87019a9287019282016104b9565b8480fd5b9193955091938287518051835201518382015201940191019184928f8e8d91969496610429565b82908101031261022c5786015180159081150361022c5761056b573886816103e5565b875162461bcd60e51b8152808401879052602a818c01527f5361666545524332303a204552433230206f7065726174696f6e20646964206e6044820152691bdd081cdd58d8d9595960b21b6064820152608490fd5b634e487b7160e01b8552604186528c85fd5b6103dc929150606090610ed5565b508a5162461bcd60e51b81528087018a9052601d818f01527f416464726573733a2063616c6c20746f206e6f6e2d636f6e74726163740000006044820152606490fd5b634e487b7160e01b8352601184528a83fd5b61063f8784610b1f565b905081101561080c5761065c816106568986610b1f565b90610b55565b358861066c836106568b88610b1f565b0135610679818954610fa9565b9188821b916106888385610b98565b600280546000199392908481019081116107f6578d901b81116107ab575b508f90918e9254946106b78261112d565b90925b8584106106f6575b5050505050506106d29082610b98565b875581156106ec575b506106e68691610afa565b906102db565b9a506106e66106db565b87841c8e1661076d5750610729915061070e83610f50565b90919082549060031b600019811b9283911b16911916179055565b8a810180911161075a57600355810111610748573880808e818e6106c2565b634e487b7160e01b8652601187528d86fd5b50634e487b7160e01b8852601189528f88fd5b6107a29261077a85610f50565b90549060031b1c928151928301938452818301528152610799816109e4565b51902091610afa565b908f908e6106ba565b6107b361100c565b8c6107bc6110c0565b6107cd575b508054600355386106a6565b81548481019081116107f6578d901b8111156107f1578c6107ec6110c0565b6107bc565b6107c1565b5050634e487b7160e01b8a525050601189528f88fd5b6102e0565b5060649184519162461bcd60e51b8352820152601260248201527124b73b30b634b21039bab136b4b9b9b4b7b760711b6044820152fd5b60649184519162461bcd60e51b8352820152601060248201526f14185d5cd8589b194e881c185d5cd95960821b6044820152fd5b8380fd5b5050346100df57816003193601126100df5760ff602092541690519015158152f35b828434610103578160031936011261010357506100d86020926024359035610fa9565b82843461010357602036600319011261010357506100d860209235610fd4565b5050346100df57816003193601126100df5761090560075443101561094a565b610120610bf4565b5050346100df57816003193601126100df576020906003549051908152f35b5050346100df57816003193601126100df576101a390610169610e98565b1561095157565b60405162461bcd60e51b815260206004820152601a60248201527f436f6e747261637420686173206e6f74206c61756e636865642e0000000000006044820152606490fd5b6040810190811067ffffffffffffffff8211176109b257604052565b634e487b7160e01b600052604160045260246000fd5b60a0810190811067ffffffffffffffff8211176109b257604052565b6060810190811067ffffffffffffffff8211176109b257604052565b90601f8019910116810190811067ffffffffffffffff8211176109b257604052565b60405190610a2f82610996565b565b60405190610a2f826109c8565b91906040928381830312610af5578351610a5781610996565b8094823582526020928381013567ffffffffffffffff91828211610af557019085601f83011215610af55781359081116109b257825195610a9d868360051b0188610a00565b818752858088019260061b84010192818411610af5578601915b838310610ac75750505050500152565b8483830312610af5578685918251610ade81610996565b853581528286013583820152815201920191610ab7565b600080fd5b6000198114610b095760010190565b634e487b7160e01b600052601160045260246000fd5b903590601e1981360301821215610af5570180359067ffffffffffffffff8211610af557602001918160061b36038313610af557565b9190811015610b655760061b0190565b634e487b7160e01b600052603260045260246000fd5b9060018201809211610b0957565b906101008201809211610b0957565b91908201809211610b0957565b610bb360075443101561094a565b610a2f610bf4565b90816020910312610af5575190565b506040513d6000823e3d90fd5b15610bde57565b634e487b7160e01b600052600160045260246000fd5b6007546064600160085401020143811015610e6a57610c1161100c565b610c19610f87565b600554610cfc906001600160a01b0316604051632d287e4360e01b81526004810184905260209491610c6e91908690829060249082906000905af1908115610e5d575b600091610e30575b5060085414610bd7565b43610c7882610b89565b1015610d50577fc5d2460186f7233c927e7db2dcc703c0e500b653ca82273b7bfad8045d85a470935b610cb4610caf600854610b7b565b600855565b6008549160015491610cc4610a31565b9384528301526040820184905260608201819052608082018590528151600a55602090910151600b55600c839055600d55600e839055565b60085460065460015460408051948552602085019290925290830152606082019290925233907fbc8a3fd82465d43f1709e44ed882f7e1af0147274196ef1ec009f5d52ff4e99390608090a3610a2f610ba5565b60015493610e2060405182810190610d8e81610d808a8a8940876040919493926060820195825260208201520152565b03601f198101835282610a00565b51902095610dda6001600160801b03610daf6009546001600160801b031690565b92610dca610dbb610a22565b6001600160801b039095168552565b166001600160801b031684830152565b610dee87600052600f602052604060002090565b815160209092015160801b6fffffffffffffffffffffffffffffffff19166001600160801b0392909216919091179055565b610e2b600154600955565b610ca1565b610e509150863d8811610e56575b610e488183610a00565b810190610bbb565b38610c64565b503d610e3e565b610e65610bca565b610c5c565b50565b60405190610e7a826109c8565b60006080838281528260208201528260408201528260608201520152565b610ea0610e6d565b50604051610ead816109c8565b600a548152600b546020820152600c546040820152600d546060820152600e54608082015290565b90919015610ee1575090565b815115610ef15750805190602001fd5b6040519062461bcd60e51b82528160208060048301528251908160248401526000935b828510610f37575050604492506000838284010152601f80199101168101030190fd5b8481018201518686016044015293810193859350610f14565b600254811015610b655760026000527f405787fa12a823e0f2b7631cc41b3ba8828b3321ca811111fa75cd3aa3bb5ace0190600090565b6002546000198101908111610b0957610f9f90610f50565b90549060031b1c90565b8015610fcd576000198101908111610b0957811c9060018201809211610b09571b90565b5050600090565b8015611006578060011c178060021c178060041c178060081c178060101c178060201c1760018101809111610b095790565b50600090565b6003805490600254918281146110bb576000198101818111610b095761104061103482610f50565b905490851b1c916111ee565b84831061104d5750505055565b604080519160208301938452818301528152611068816109e4565b5190209060018054821c16156000146110a15761109b829161109661108c826111ee565b9461070e83610f50565b610afa565b91611040565b9061109b6110ae83610f50565b905490851b1c9192610afa565b505050565b6002546000198101818111610b0957806110dc6110e592610f50565b929054916111ee565b60405191602083019360031b1c8352604082015260408152611106816109e4565b519020680100000000000000008210156109b25761070e826001610a2f9401600255610f50565b60038054918083116110bb5760025492600019810190808211610b09579061116361115782610f50565b905490861b1c916111ee565b85831061117257505050505050565b60408051916020830193845281830152815261118d816109e4565b51902060018054831c166111d45780916111a6816111ee565b91848210156111c057506111b990610afa565b9190611163565b9450915050610a2f935061070e9150610f50565b906111b96111e182610f50565b905490861b1c9291610afa565b8061121857507fd397b3b043d87fcd6fad1291ff0bfd16401c274896d8c63a923727f077b8e0b590565b6001810361124557507ff73e6947d7d1628b9976a6e40d7b278a8a16405e96324a68df45b12a51b7cfde90565b6002810361127257507fa1520264ae93cac619e22e8718fc4fa7ebdd23f493cad602434d2a58ff4868fb90565b6003810361129f57507fde5747106ac1194a1fa9071dbd6cf19dc2bc7964497ef0afec7e4bdbcf08c47e90565b600481036112cc57507f09c7082879180d28c789c05fafe7030871c76cedbe82c948b165d6a1d66ac15b90565b600581036112f957507faa7a02bcf29fba687f84123c808b5b48834ff5395abe98e622fadc14e4180c9590565b6006810361132657507f7608fd46b710b589e0f2ee5a13cd9c41d432858a30d524f84c6d5db37f66273a90565b6007810361135357507fa5d9a2f7f3573ac9a1366bc484688b4daf934b87ea9b3bf2e703da8fd9f0970890565b6008810361138057507f6c1779477f4c3fca26b4607398859a43b90a286ce8062500744bd4949981757f90565b600981036113ad57507f45c22df3d952c33d5edce122eed85e5cda3fd61939e7ad7b3e03b6927bb598ea90565b600a81036113da57507fe68d02859bb6211cec64f52368b77d422de3b8eac34bf615942b814b643301b590565b600b810361140757507f62d78399b954d51cb9728601738ad13ddc43b2300064660716bb661d2f4d686f90565b600c810361143457507f6e250d9abdbbb3993fce08de0395cdb56f0483e67d8762a798de011f6a50866a90565b600d810361146157507f1d1a3a74062fd94078617e33eb901eaf16a830f67c387d8eed342db2ac5e2cc590565b600e810361148e57507f19b3b3886526917eae8650223d0be20a0301be960eb339696e673ad8a804440f90565b600f81036114bb57507fee9e05df53f10e62a897e5140a3f58732dd849e69cd1d62b21ed80ead711a01490565b601081036114e857507f2cc7aa6e611a113a34505dc1c96b220f14909b70e2c2c7b1a74655da21013c5e90565b6011810361151557507f949b52dfece7ca3bad3cb27f7750ecaee64cedb6243a275c35984e92956c530a90565b6012810361154257507fb2680d060b763b932c150434c3812ba9fbc50937e0ebcf5758de884be81bab6590565b6013810361156f57507f523aebf4a085edbc9c8cdc99c83f46262e5f029b395ff7bf561a48a3f387e6b890565b6014810361159c57507fc9ab73827ab33c0cedb7ecf0ed2e6e32583c0fe887133a7f381ea4ba84d95b7690565b601581036115c957507f23eb397dec7e564ebe97f160a5e1081a77d9861f316807079b6be4731beb331e90565b601681036115f657507fdfa44a274c60f090df034aaf75539fd40e94cfd6362dd53d26ed20c8ad52956390565b6017810361162357507f15b13ee358e1044a53381243c094e54bf7aceb9b5325a0313d6b85fd44e8b3a590565b6018810361165057507f1a7a93871e2daa0f1860aa91d4ece4ccd012dac5fe581176a21b155cfeca6d4090565b6019810361167d57507fb12665fd0b884a7c7d1e0294d369170d7e672d9e125eb87784556305f98292df90565b601a81036116aa57507f2a5543b0b2f8cf550524390291774f4d6c8c0a25ff5393b09c44d75c92a5bd8e90565b601b81036116d757507ff9df1841a6e7164b67a1242f1c74975137085ffd9721831f6c469d3a4d5ba42e90565b601c810361170457507fba24736b1b48246c1f7803be967be43ca0dddc9c2c0687a2957952249bc8937190565b601d810361173157507ff3f706b73790c73ca0a8f0460ac3a2a102e280415586b520e70cd5e8264388b490565b601e810361175e57507fc1f5a9a9f357e1c37814688cf7290c87a264ed3d6174a12b978da1c586f5382590565b601f810361178b57507f766f7702e19ce23d426cdad03e4292a5a42c4669420101fed74400ec7cda3ac690565b602081036117b857507f070fec213e105b3e4d9b0434ac2fc7ca721d35093dc741fb9419797003e2394a90565b602181036117e557507f9a7aade05b49e43f5fd3782571cc8c90eadacd5d660b53842b4e5b63d675ae0c90565b6022810361181257507fb27b35a8236d0f9b6692820429c025ed58ed378dc98d316b762f0c865c68be6f90565b6023810361183f57507fdc567ad38d9b90cc9bea4e0f82ec05eca10b3aa94eddc7b63c4fd20c001bb53b90565b6024810361186c57507fb208dfc457c8b30661ae49544c8e57399818095aab8dd7a426fb8dd56bb8c55990565b6025810361189957507fc4a72e1ff84f7a22631f3f95c61c392f98f52050360215a9d7e75d79b0bcd2ca90565b602681036118c657507fbb093ec8c0d7defb1de668b5b5dd4f2619e5cd92d29cc144862364a83ab993a890565b602781036118f357507fe341796f2fe3975012c1e6badfa2e9c4523e43f911dc845082c3f4d7b4ff871d90565b6028810361192057507f42d356a11a0b39243eca3c3263299cb6f8c3e9728af6d9d8b0ddb6d354f1890d90565b6029810361194d57507f0ce506e834e3a50a33f80074bc7fa16cf3c0712b36a41b69699177ea25de6c3090565b602a810361197a57507fd8fa5bf130aeb7756b1ed09090cc80ed78dae0617978540f0fabd06dfb97893890565b602b81036119a757507feed69a20fe36eb604f2153efa3b01c0e143cdf02229a1b8f741c9c2719059eb090565b602c81036119d457507f303c9c566ebf5bfe252796e5c131a99801226152a514688b5ca6883e99031d8890565b602d8103611a0157507fc7c3765ba96cfbccf3ae718393fa89791070cc8cd85f280b6ac46aea10d9604290565b602e8103611a2e57507f1ca65b0a2b8034ee6bfb1fa4526832304e393af835c2c42b4dace5804874680090565b602f8103611a5b57507f957add5e02350fd47de3a8e1da38fd774ceb31214d5897ed6315740a83cd634a90565b60308103611a8857507f787892cb439d5d358870774e163557cf02ec3cb87be6fde11abf1acee14eeaa490565b60318103611ab557507f047c0962d4f5c8f60692c587de07739528c4d2059240d61dd34d2a547a438ee690565b60328103611ae257507fc18727efc9e4df63020dcd90edc17dfd2ad14f02328c912b13898e0b5373555690565b60338103611b0f57507fe38b9218987e451effe1648c3c9851ad03b64b052a5a3f5ca30f4d7b1ecf712090565b60348103611b3c57507f0e48ecb1a5418e6218289acc8cf723e67ac6eae3ecb80f644336ab4365a2f2b290565b60358103611b6957507fd60e66f5b8cd08d71a1a4d7798952a7afa5a6e93a886c587a46a5500ebef4a6090565b60368103611b9657507f5162aa9c31d9105f689cf6e71e19548bc9f0218b7d0f99ff7fa8bc2f19c6846290565b60378103611bc357507f6fa8519b4b0e8fb97a9b618e97627d97b9b9d29d04521fd96472e9c50270056890565b60388103611bf057507f41f5dcf0cdee270a2ad9a5f8130aaaab94b237463e09757c28b0321f09e24eb090565b60398103611c1d57507f87a119239fa90732197108adfd029938b4743874d959d3da79b3a30f4832899e90565b603a8103611c4a57507f8e96dbaa5c72e84a5297b040ccc1a60750a3201166e3b7740d352837233608a190565b603b8103611c7757507f01605058d167ce967af8c475d2f6c341c3e0b437babf899c9da73a520aa4ecb590565b603c8103611ca457507f04529eb80532c5118949d700d8dfd2aa86850b1c6479b26276b9486784a145ff90565b603d8103611cd157507fd191814ad13f27361ae20a46cbac8f6e76c10ebe9af0806d6720492ee2f296f090565b603e8103611cfe57507fa28df63f78821060570da371c0be1312188346b92a7965cc4b980b26c134a4d790565b603f03611d29577fb48a92d40b61dc995ceecee4cded6415050dcece448b1e0b5e5b6a0e6981f3ef90565b60405162461bcd60e51b8152602060048201526012602482015271125b99195e081bdd5d081bd988189bdd5b9960721b6044820152606490fd5b8051821015610b655760209160051b010190565b600090815b6020808301518051851015611db557916001611da992611d9f87611daf96611d63565b5101511b90610b98565b92610afa565b91611d7c565b505091505090565b60208082019081515115611e7257611dd6835193611d77565b60001993908015158186046101001116610b095760081b10611e72578151805115610b65578180604092015101511015611e725760005b825151848101908111610b0957811015611e695782516001820190818311610b09578391611e3a91611d63565b51015182611e49838651611d63565b5101511115611e6057611e5b90610afa565b611e0d565b50505050600090565b50505050600190565b50505060009056fea2646970667358221220c942224ea4f092be7e7cac9f0c3240610621e0fa1cbdbe0906b91668178d532464736f6c634300081000336080604052346100f95761043c803803908161001a816100fe565b92839283396020928391810103126100f957519061004b61004261003d84610123565b6100fe565b92808452610123565b8183019290601f190136843751906001600160401b0382116100e3576801000000000000000082116100e35760009283548385558084106100be575b509083805280842090845b8481106100ac5785600155604051610301908161013b8239f35b83518382015592810192600101610092565b8480528383862091820191015b8181106100d85750610087565b8581556001016100cb565b634e487b7160e01b600052604160045260246000fd5b600080fd5b6040519190601f01601f191682016001600160401b038111838210176100e357604052565b6001600160401b0381116100e35760051b6020019056fe6040608081526004908136101561001557600080fd5b6000803560e01c80631d1a696d1461014a5780632d287e43146100d8578063e0886f90146100765763eade15701461004c57600080fd5b34610073576020366003190112610073575061006a602092356101d3565b90519015158152f35b80fd5b5091346100d45760203660031901126100d457803590610095826101d3565b156100bf57506100ac6100b1916020945490610169565b610189565b91905490519160031b1c8152f35b915163471ecbfb60e11b815291820152602490fd5b8280fd5b50903461014657602036600319011261014657600154916100fd6100ac825485610169565b81549060031b90600019821b80928835901b16911916179055600154906001820180921161013357506020935060015551908152f35b634e487b7160e01b815260118552602490fd5b5080fd5b5034610073576020366003190112610073575061006a60209235610227565b8115610173570690565b634e487b7160e01b600052601260045260246000fd5b9060009182548110156101bf578280527f290decd9548b62a8d60345a988386fc84ba6bc95484008f6362f93160ef3e563019190565b634e487b7160e01b83526032600452602483fd5b6000546001549182811092836101ea575b50505090565b9192509082811061022057915b820391821161020a5710153880806101e4565b634e487b7160e01b600052601160045260246000fd5b50816101f7565b600180546000928354918281106000146102c457915b845b83811061024e57505050505090565b818110156102b05785805282817f290decd9548b62a8d60345a988386fc84ba6bc95484008f6362f93160ef3e5630154146102a757600019811461029357840161023f565b634e487b7160e01b86526011600452602486fd5b50505050905090565b634e487b7160e01b86526032600452602486fd5b508161023d56fea26469706673582212206b14605749c6da2e46a78a013f30684dcf11bbc082079dcaa4c820b4dee2c3f664736f6c63430008100033",
  "linkReferences": {},
  "deployedLinkReferences": {}
}