{
  "abi": [
    {
      "inputs": [],
      "stateMutability": "nonpayable",
      "type": "constructor"
    },
    {
      "inputs": [],
      "name": "TooManyStreams",
      "type": "error"
    },
    {
      "inputs": [],
      "name": "Unauthorized",
      "type": "error"
    },
    {
      "anonymous": false,
      "inputs": [
        {
          "indexed": false,
          "internalType": "uint256",
          "name": "id",
          "type": "uint256"
        }
      ],
      "name": "NewStream",
      "type": "event"
    },
    {
      "inputs": [],
      "name": "MAX_STREAMS_PER_LOG_ENTRY",
      "outputs": [
        {
          "internalType": "uint256",
          "name": "",
          "type": "uint256"
        }
      ],
      "stateMutability": "view",
      "type": "function"
    },
    {
      "inputs": [
        {
          "internalType": "bytes32",
          "name": "dataRoot",
          "type": "bytes32"
        },
        {
          "internalType": "uint256",
          "name": "sizeBytes",
          "type": "uint256"
        },
        {
          "internalType": "uint256[]",
          "name": "streamIds",
          "type": "uint256[]"
        }
      ],
      "name": "appendLog",
      "outputs": [],
      "stateMutability": "nonpayable",
      "type": "function"
    },
    {
      "inputs": [
        {
          "internalType": "bytes32",
          "name": "dataRoot",
          "type": "bytes32"
        },
        {
          "internalType": "uint256",
          "name": "sizeBytes",
          "type": "uint256"
        }
      ],
      "name": "appendLog",
      "outputs": [],
      "stateMutability": "nonpayable",
      "type": "function"
    },
    {
      "inputs": [
        {
          "internalType": "bytes",
          "name": "data",
          "type": "bytes"
        },
        {
          "internalType": "uint256[]",
          "name": "streamIds",
          "type": "uint256[]"
        }
      ],
      "name": "appendLogWithData",
      "outputs": [],
      "stateMutability": "nonpayable",
      "type": "function"
    },
    {
      "inputs": [
        {
          "internalType": "bytes",
          "name": "data",
          "type": "bytes"
        }
      ],
      "name": "appendLogWithData",
      "outputs": [],
      "stateMutability": "nonpayable",
      "type": "function"
    },
    {
      "inputs": [
        {
          "internalType": "contract AccessControl",
          "name": "ac",
          "type": "address"
        }
      ],
      "name": "createStream",
      "outputs": [],
      "stateMutability": "nonpayable",
      "type": "function"
    },
    {
      "inputs": [
        {
          "internalType": "uint256",
          "name": "offset",
          "type": "uint256"
        },
        {
          "internalType": "uint256",
          "name": "limit",
          "type": "uint256"
        }
      ],
      "name": "getLogEntries",
      "outputs": [
        {
          "components": [
            {
              "internalType": "uint256[]",
              "name": "streamIds",
              "type": "uint256[]"
            },
            {
              "internalType": "bytes",
              "name": "data",
              "type": "bytes"
            },
            {
              "internalType": "bytes32",
              "name": "dataRoot",
              "type": "bytes32"
            },
            {
              "internalType": "uint256",
              "name": "sizeBytes",
              "type": "uint256"
            }
          ],
          "internalType": "struct IonianStructs.LogEntry[]",
          "name": "entries",
          "type": "tuple[]"
        }
      ],
      "stateMutability": "view",
      "type": "function"
    },
    {
      "inputs": [
        {
          "internalType": "uint256",
          "name": "",
          "type": "uint256"
        }
      ],
      "name": "log",
      "outputs": [
        {
          "internalType": "bytes",
          "name": "data",
          "type": "bytes"
        },
        {
          "internalType": "bytes32",
          "name": "dataRoot",
          "type": "bytes32"
        },
        {
          "internalType": "uint256",
          "name": "sizeBytes",
          "type": "uint256"
        }
      ],
      "stateMutability": "view",
      "type": "function"
    },
    {
      "inputs": [],
      "name": "numLogEntries",
      "outputs": [
        {
          "internalType": "uint256",
          "name": "",
          "type": "uint256"
        }
      ],
      "stateMutability": "view",
      "type": "function"
    },
    {
      "inputs": [],
      "name": "numStreams",
      "outputs": [
        {
          "internalType": "uint256",
          "name": "",
          "type": "uint256"
        }
      ],
      "stateMutability": "view",
      "type": "function"
    },
    {
      "inputs": [
        {
          "internalType": "uint256",
          "name": "",
          "type": "uint256"
        }
      ],
      "name": "streams",
      "outputs": [
        {
          "internalType": "contract AccessControl",
          "name": "ac",
          "type": "address"
        }
      ],
      "stateMutability": "view",
      "type": "function"
    }
  ],
  "bytecode": {
    "object": "0x608060405234801561001057600080fd5b5060408051602081019091526000808252600180548082018255915290517fb10e2d527612073b26eecdfd717e6a320cf44b4afac2b0732d9fcbe2b7fa0cf690910180546001600160a01b03929092166001600160a01b0319909216919091179055610f35806100816000396000f3fe608060405234801561001057600080fd5b50600436106100a95760003560e01c8063c6f2d2fa11610071578063c6f2d2fa1461012b578063df090fa51461013e578063e8b8ffbc14610146578063e95ff10414610166578063e976681c14610179578063f82c50f11461018157600080fd5b806309b08381146100ae578063135d4712146100c357806360d29a1c146100d657806364d60d91146100ed57806369bc63a214610118575b600080fd5b6100c16100bc366004610a3a565b6101a3565b005b6100c16100d1366004610acf565b610266565b6001545b6040519081526020015b60405180910390f35b6101006100fb366004610b2f565b610315565b6040516001600160a01b0390911681526020016100e4565b6100c1610126366004610b48565b61033f565b6100c1610139366004610b71565b6103d4565b6100da600a81565b610159610154366004610b71565b61047f565b6040516100e49190610be0565b6100c1610174366004610ca4565b6106fc565b6000546100da565b61019461018f366004610b2f565b610788565b6040516100e493929190610ce6565b6040805160a060208402808301820190935260808201848152600093839287918791829190860190849080828437600092018290525093855250506040805160208181018352848252808601919091529084018a905260609093018890525083546001810185559381528190208251805193946004029091019261022a928492019061098e565b506020820151600182019061023f9082610da9565b5060408201518160020155606082015181600301555050610260828261084a565b50505050565b6040805160a060208402808301820190935260808201848152600093839287918791829190860190849080828437600092019190915250505090825250604080516020601f89018190048102820181019092528781529181019190889088908190840183828082843760009201829052509385525050506020808301829052604090920181905283546001810185559381528190208251805193946004029091019261022a928492019061098e565b6001818154811061032557600080fd5b6000918252602090912001546001600160a01b0316905081565b6001805460408051602080820183526001600160a01b038681168352848601865560009590955290517fb10e2d527612073b26eecdfd717e6a320cf44b4afac2b0732d9fcbe2b7fa0cf6840180546001600160a01b03191691909516179093555181815290917fcc574989141aace13d3c0735bdabcb47effa3bbf4e95381d87a7d0b9eb71105e910160405180910390a15050565b6040805160006080820181815260a08301845282528251602080820185528282528084019190915292820185905260608201849052805460018101825590805281518051929360049092027f290decd9548b62a8d60345a988386fc84ba6bc95484008f6362f93160ef3e563019261044f928492019061098e565b50602082015160018201906104649082610da9565b50604082015181600201556060820151816003015550505050565b60005460609083106104ea5760408051600080825260208201909252906104e2565b6104cf6040518060800160405280606081526020016060815260200160008019168152602001600081525090565b8152602001906001900390816104a15790505b5090506106f6565b60008054610501906104fc8587610e7f565b610976565b905061050d8482610e97565b67ffffffffffffffff81111561052557610525610d0b565b60405190808252806020026020018201604052801561058457816020015b6105716040518060800160405280606081526020016060815260200160008019168152602001600081525090565b8152602001906001900390816105435790505b509150835b818110156106f357600081815481106105a4576105a4610eae565b90600052602060002090600402016040518060800160405290816000820180548060200260200160405190810160405280929190818152602001828054801561060c57602002820191906000526020600020905b8154815260200190600101908083116105f8575b5050505050815260200160018201805461062590610d21565b80601f016020809104026020016040519081016040528092919081815260200182805461065190610d21565b801561069e5780601f106106735761010080835404028352916020019161069e565b820191906000526020600020905b81548152906001019060200180831161068157829003601f168201915b505050918352505060028201546020820152600390910154604090910152836106c78784610e97565b815181106106d7576106d7610eae565b6020026020010181905250806106ec90610ec4565b9050610589565b50505b92915050565b6040805160006080820181815260a08301909352918190815260200184848080601f01602080910402602001604051908101604052809392919081815260200183838082843760009201829052509385525050506020808301829052604090920181905283546001810185559381528190208251805193946004029091019261044f928492019061098e565b6000818154811061079857600080fd5b90600052602060002090600402016000915090508060010180546107bb90610d21565b80601f01602080910402602001604051908101604052809291908181526020018280546107e790610d21565b80156108345780601f1061080957610100808354040283529160200191610834565b820191906000526020600020905b81548152906001019060200180831161081757829003601f168201915b5050505050908060020154908060030154905083565b600a81111561086c5760405163bd56d75360e01b815260040160405180910390fd5b60005b8181101561097157600083838381811061088b5761088b610eae565b9050602002013590506000600182815481106108a9576108a9610eae565b600091825260209182902060408051938401905201546001600160a01b03168082529091501561095c578051604051633b96b26f60e21b81523360048201526001600160a01b039091169063ee5ac9bc906024016020604051808303816000875af115801561091c573d6000803e3d6000fd5b505050506040513d601f19601f820116820180604052508101906109409190610edd565b61095c576040516282b42960e81b815260040160405180910390fd5b5050808061096990610ec4565b91505061086f565b505050565b60008183106109855781610987565b825b9392505050565b8280548282559060005260206000209081019282156109c9579160200282015b828111156109c95782518255916020019190600101906109ae565b506109d59291506109d9565b5090565b5b808211156109d557600081556001016109da565b60008083601f840112610a0057600080fd5b50813567ffffffffffffffff811115610a1857600080fd5b6020830191508360208260051b8501011115610a3357600080fd5b9250929050565b60008060008060608587031215610a5057600080fd5b8435935060208501359250604085013567ffffffffffffffff811115610a7557600080fd5b610a81878288016109ee565b95989497509550505050565b60008083601f840112610a9f57600080fd5b50813567ffffffffffffffff811115610ab757600080fd5b602083019150836020828501011115610a3357600080fd5b60008060008060408587031215610ae557600080fd5b843567ffffffffffffffff80821115610afd57600080fd5b610b0988838901610a8d565b90965094506020870135915080821115610b2257600080fd5b50610a81878288016109ee565b600060208284031215610b4157600080fd5b5035919050565b600060208284031215610b5a57600080fd5b81356001600160a01b038116811461098757600080fd5b60008060408385031215610b8457600080fd5b50508035926020909101359150565b6000815180845260005b81811015610bb957602081850181015186830182015201610b9d565b81811115610bcb576000602083870101525b50601f01601f19169290920160200192915050565b60006020808301818452808551808352604092508286019150828160051b8701018488016000805b84811015610c9557898403603f19018652825180516080808752815190870181905260a08701918b019085905b80821015610c555782518452928c0192918c019160019190910190610c35565b505050898201518682038b880152610c6d8282610b93565b838b0151888c0152606093840151939097019290925250509487019491870191600101610c08565b50919998505050505050505050565b60008060208385031215610cb757600080fd5b823567ffffffffffffffff811115610cce57600080fd5b610cda85828601610a8d565b90969095509350505050565b606081526000610cf96060830186610b93565b60208301949094525060400152919050565b634e487b7160e01b600052604160045260246000fd5b600181811c90821680610d3557607f821691505b602082108103610d5557634e487b7160e01b600052602260045260246000fd5b50919050565b601f82111561097157600081815260208120601f850160051c81016020861015610d825750805b601f850160051c820191505b81811015610da157828155600101610d8e565b505050505050565b815167ffffffffffffffff811115610dc357610dc3610d0b565b610dd781610dd18454610d21565b84610d5b565b602080601f831160018114610e0c5760008415610df45750858301515b600019600386901b1c1916600185901b178555610da1565b600085815260208120601f198616915b82811015610e3b57888601518255948401946001909101908401610e1c565b5085821015610e595787850151600019600388901b60f8161c191681555b5050505050600190811b01905550565b634e487b7160e01b600052601160045260246000fd5b60008219821115610e9257610e92610e69565b500190565b600082821015610ea957610ea9610e69565b500390565b634e487b7160e01b600052603260045260246000fd5b600060018201610ed657610ed6610e69565b5060010190565b600060208284031215610eef57600080fd5b8151801515811461098757600080fdfea2646970667358221220f7779ae70713801ade0bc9ec736ae9e3fd37453490b7915639126a415d1f90e964736f6c634300080f0033",
    "linkReferences": {}
  },
  "methodIdentifiers": {
    "MAX_STREAMS_PER_LOG_ENTRY()": "df090fa5",
    "appendLog(bytes32,uint256)": "c6f2d2fa",
    "appendLog(bytes32,uint256,uint256[])": "09b08381",
    "appendLogWithData(bytes)": "e95ff104",
    "appendLogWithData(bytes,uint256[])": "135d4712",
    "createStream(address)": "69bc63a2",
    "getLogEntries(uint256,uint256)": "e8b8ffbc",
    "log(uint256)": "f82c50f1",
    "numLogEntries()": "e976681c",
    "numStreams()": "60d29a1c",
    "streams(uint256)": "64d60d91"
  },
  "id": 3
}